{
    "contractName": "Survey",
    "abi": [
        {
            "constant": false,
            "inputs": [
                {
                    "name": "_newAdmin",
                    "type": "address"
                },
                {
                    "name": "level",
                    "type": "uint256"
                }
            ],
            "name": "addAdmin",
            "outputs": [
                {
                    "name": "",
                    "type": "bool"
                }
            ],
            "payable": false,
            "stateMutability": "nonpayable",
            "type": "function"
        },
        {
            "constant": false,
            "inputs": [],
            "name": "destroy",
            "outputs": [],
            "payable": false,
            "stateMutability": "nonpayable",
            "type": "function"
        },
        {
            "constant": true,
            "inputs": [
                {
                    "name": "_isAdmin",
                    "type": "address"
                },
                {
                    "name": "level",
                    "type": "uint256"
                }
            ],
            "name": "isAdmin",
            "outputs": [
                {
                    "name": "",
                    "type": "bool"
                }
            ],
            "payable": false,
            "stateMutability": "view",
            "type": "function"
        },
        {
            "inputs": [
                {
                    "name": "_surveyDB",
                    "type": "address"
                },
                {
                    "name": "_ahtToken",
                    "type": "address"
                }
            ],
            "payable": false,
            "stateMutability": "nonpayable",
            "type": "constructor"
        },
        {
            "anonymous": false,
            "inputs": [
                {
                    "indexed": false,
                    "name": "name",
                    "type": "bytes32"
                },
                {
                    "indexed": false,
                    "name": "options",
                    "type": "bytes32[]"
                },
                {
                    "indexed": false,
                    "name": "endDate",
                    "type": "uint256"
                },
                {
                    "indexed": false,
                    "name": "rewardPool",
                    "type": "uint256"
                }
            ],
            "name": "SurveyPost",
            "type": "event"
        },
        {
            "anonymous": false,
            "inputs": [
                {
                    "indexed": false,
                    "name": "surveyName",
                    "type": "bytes32"
                },
                {
                    "indexed": false,
                    "name": "surveyOption",
                    "type": "bytes32"
                }
            ],
            "name": "SurveyOptionPost",
            "type": "event"
        },
        {
            "anonymous": false,
            "inputs": [
                {
                    "indexed": false,
                    "name": "surveyName",
                    "type": "bytes32"
                },
                {
                    "indexed": false,
                    "name": "sender",
                    "type": "address"
                },
                {
                    "indexed": false,
                    "name": "payoutType",
                    "type": "uint256"
                },
                {
                    "indexed": false,
                    "name": "date",
                    "type": "uint256"
                }
            ],
            "name": "SurveyStakingHistoryPost",
            "type": "event"
        },
        {
            "anonymous": false,
            "inputs": [
                {
                    "indexed": false,
                    "name": "surveyName",
                    "type": "bytes32"
                },
                {
                    "indexed": false,
                    "name": "endDate",
                    "type": "uint256"
                }
            ],
            "name": "SurveyUpdateEndDatePost",
            "type": "event"
        },
        {
            "anonymous": false,
            "inputs": [
                {
                    "indexed": false,
                    "name": "surveyName",
                    "type": "bytes32"
                },
                {
                    "indexed": false,
                    "name": "rewardPool",
                    "type": "uint256"
                }
            ],
            "name": "SurveyUpdateRewardPool",
            "type": "event"
        },
        {
            "anonymous": false,
            "inputs": [
                {
                    "indexed": false,
                    "name": "surveyName",
                    "type": "bytes32"
                },
                {
                    "indexed": false,
                    "name": "participantOption",
                    "type": "bytes32"
                },
                {
                    "indexed": false,
                    "name": "ahtVote",
                    "type": "uint256"
                },
                {
                    "indexed": false,
                    "name": "typeVote",
                    "type": "bool"
                },
                {
                    "indexed": false,
                    "name": "typeReward",
                    "type": "uint256"
                },
                {
                    "indexed": false,
                    "name": "participantAddress",
                    "type": "address"
                }
            ],
            "name": "SurveyAnswerPost",
            "type": "event"
        },
        {
            "anonymous": false,
            "inputs": [
                {
                    "indexed": false,
                    "name": "amountStaked",
                    "type": "uint256"
                },
                {
                    "indexed": false,
                    "name": "sender",
                    "type": "address"
                }
            ],
            "name": "StakingPost",
            "type": "event"
        },
        {
            "anonymous": false,
            "inputs": [
                {
                    "indexed": false,
                    "name": "surveyName",
                    "type": "bytes32"
                },
                {
                    "indexed": false,
                    "name": "sender",
                    "type": "address"
                },
                {
                    "indexed": false,
                    "name": "dateStop",
                    "type": "uint256"
                }
            ],
            "name": "StakingStopPost",
            "type": "event"
        },
        {
            "anonymous": false,
            "inputs": [
                {
                    "indexed": false,
                    "name": "surveyName",
                    "type": "bytes32"
                },
                {
                    "indexed": false,
                    "name": "participant",
                    "type": "address"
                },
                {
                    "indexed": false,
                    "name": "reward",
                    "type": "uint256"
                },
                {
                    "indexed": false,
                    "name": "datePayout",
                    "type": "uint256"
                },
                {
                    "indexed": false,
                    "name": "payer",
                    "type": "address"
                }
            ],
            "name": "SendReward",
            "type": "event"
        },
        {
            "anonymous": false,
            "inputs": [
                {
                    "indexed": false,
                    "name": "participant",
                    "type": "address"
                },
                {
                    "indexed": false,
                    "name": "payer",
                    "type": "address"
                }
            ],
            "name": "ReturnAmountStaked",
            "type": "event"
        },
        {
            "anonymous": false,
            "inputs": [
                {
                    "indexed": false,
                    "name": "participantAddress",
                    "type": "address"
                },
                {
                    "indexed": false,
                    "name": "ahtVote",
                    "type": "uint256"
                }
            ],
            "name": "TransferAHTVote",
            "type": "event"
        },
        {
            "constant": false,
            "inputs": [
                {
                    "name": "_surveyDB",
                    "type": "address"
                }
            ],
            "name": "setSurveyDBContract",
            "outputs": [],
            "payable": false,
            "stateMutability": "nonpayable",
            "type": "function"
        },
        {
            "constant": false,
            "inputs": [
                {
                    "name": "_ahtToken",
                    "type": "address"
                }
            ],
            "name": "setAHTToken",
            "outputs": [],
            "payable": false,
            "stateMutability": "nonpayable",
            "type": "function"
        },
        {
            "constant": true,
            "inputs": [],
            "name": "getAllSurveys",
            "outputs": [
                {
                    "name": "names",
                    "type": "bytes32[]"
                }
            ],
            "payable": false,
            "stateMutability": "view",
            "type": "function"
        },
        {
            "constant": false,
            "inputs": [
                {
                    "name": "name",
                    "type": "bytes32"
                },
                {
                    "name": "options",
                    "type": "bytes32[]"
                },
                {
                    "name": "endDate",
                    "type": "uint256"
                },
                {
                    "name": "rewardPool",
                    "type": "uint256"
                }
            ],
            "name": "addSurvey",
            "outputs": [],
            "payable": false,
            "stateMutability": "nonpayable",
            "type": "function"
        },
        {
            "constant": false,
            "inputs": [
                {
                    "name": "surveyName",
                    "type": "bytes32"
                },
                {
                    "name": "surveyOption",
                    "type": "bytes32"
                }
            ],
            "name": "addSurveyOption",
            "outputs": [],
            "payable": false,
            "stateMutability": "nonpayable",
            "type": "function"
        },
        {
            "constant": false,
            "inputs": [
                {
                    "name": "surveyName",
                    "type": "bytes32"
                },
                {
                    "name": "sender",
                    "type": "address"
                },
                {
                    "name": "payoutType",
                    "type": "uint256"
                },
                {
                    "name": "date",
                    "type": "uint256"
                }
            ],
            "name": "addStakingHistory",
            "outputs": [],
            "payable": false,
            "stateMutability": "nonpayable",
            "type": "function"
        },
        {
            "constant": false,
            "inputs": [
                {
                    "name": "surveyName",
                    "type": "bytes32"
                },
                {
                    "name": "endDate",
                    "type": "uint256"
                }
            ],
            "name": "updateSurveyEndDate",
            "outputs": [],
            "payable": false,
            "stateMutability": "nonpayable",
            "type": "function"
        },
        {
            "constant": false,
            "inputs": [
                {
                    "name": "surveyName",
                    "type": "bytes32"
                },
                {
                    "name": "rewardPool",
                    "type": "uint256"
                }
            ],
            "name": "updateSurveyRewardPool",
            "outputs": [],
            "payable": false,
            "stateMutability": "nonpayable",
            "type": "function"
        },
        {
            "constant": true,
            "inputs": [],
            "name": "getBalance",
            "outputs": [
                {
                    "name": "balance",
                    "type": "uint256"
                }
            ],
            "payable": false,
            "stateMutability": "view",
            "type": "function"
        },
        {
            "constant": false,
            "inputs": [
                {
                    "name": "surveyName",
                    "type": "bytes32"
                },
                {
                    "name": "participantOption",
                    "type": "bytes32"
                },
                {
                    "name": "typeVote",
                    "type": "bool"
                },
                {
                    "name": "typeReward",
                    "type": "uint256"
                },
                {
                    "name": "dateVoted",
                    "type": "uint256"
                }
            ],
            "name": "saveAnswer",
            "outputs": [],
            "payable": false,
            "stateMutability": "nonpayable",
            "type": "function"
        },
        {
            "constant": false,
            "inputs": [
                {
                    "name": "surveyName",
                    "type": "bytes32"
                },
                {
                    "name": "amountStaked",
                    "type": "uint256"
                },
                {
                    "name": "stakeStartDate",
                    "type": "uint256"
                }
            ],
            "name": "sendStake",
            "outputs": [],
            "payable": false,
            "stateMutability": "nonpayable",
            "type": "function"
        },
        {
            "constant": false,
            "inputs": [
                {
                    "name": "surveyName",
                    "type": "bytes32"
                },
                {
                    "name": "dateStop",
                    "type": "uint256"
                }
            ],
            "name": "stopStake",
            "outputs": [],
            "payable": false,
            "stateMutability": "nonpayable",
            "type": "function"
        },
        {
            "constant": false,
            "inputs": [
                {
                    "name": "surveyName",
                    "type": "bytes32"
                },
                {
                    "name": "participant",
                    "type": "address"
                },
                {
                    "name": "reward",
                    "type": "uint256"
                },
                {
                    "name": "datePayout",
                    "type": "uint256"
                }
            ],
            "name": "sendReward",
            "outputs": [],
            "payable": false,
            "stateMutability": "nonpayable",
            "type": "function"
        },
        {
            "constant": false,
            "inputs": [
                {
                    "name": "sender",
                    "type": "address"
                }
            ],
            "name": "returnAmountStaked",
            "outputs": [],
            "payable": false,
            "stateMutability": "nonpayable",
            "type": "function"
        },
        {
            "constant": true,
            "inputs": [
                {
                    "name": "surveyName",
                    "type": "bytes32"
                }
            ],
            "name": "getSurvey",
            "outputs": [
                {
                    "name": "options",
                    "type": "bytes32[]"
                },
                {
                    "name": "exists",
                    "type": "bool"
                },
                {
                    "name": "rewardPool",
                    "type": "uint256"
                },
                {
                    "name": "endDate",
                    "type": "uint256"
                },
                {
                    "name": "owner",
                    "type": "address"
                }
            ],
            "payable": false,
            "stateMutability": "view",
            "type": "function"
        },
        {
            "constant": true,
            "inputs": [],
            "name": "getTotalAmountStacked",
            "outputs": [
                {
                    "name": "amountStaked",
                    "type": "uint256"
                }
            ],
            "payable": false,
            "stateMutability": "view",
            "type": "function"
        },
        {
            "constant": true,
            "inputs": [
                {
                    "name": "surveyName",
                    "type": "bytes32"
                }
            ],
            "name": "getSurveyRewardPool",
            "outputs": [
                {
                    "name": "rewardPool",
                    "type": "uint256"
                }
            ],
            "payable": false,
            "stateMutability": "view",
            "type": "function"
        },
        {
            "constant": true,
            "inputs": [
                {
                    "name": "surveyName",
                    "type": "bytes32"
                }
            ],
            "name": "getSurveyStakingHistory",
            "outputs": [
                {
                    "name": "sender",
                    "type": "address[]"
                },
                {
                    "name": "payoutType",
                    "type": "uint256[]"
                },
                {
                    "name": "time",
                    "type": "uint256[]"
                }
            ],
            "payable": false,
            "stateMutability": "view",
            "type": "function"
        },
        {
            "constant": true,
            "inputs": [],
            "name": "getAmountStaked",
            "outputs": [
                {
                    "name": "amountStaked",
                    "type": "uint256"
                }
            ],
            "payable": false,
            "stateMutability": "view",
            "type": "function"
        },
        {
            "constant": true,
            "inputs": [
                {
                    "name": "surveyName",
                    "type": "bytes32"
                }
            ],
            "name": "getStakingInfo",
            "outputs": [
                {
                    "name": "stakingActive",
                    "type": "bool"
                },
                {
                    "name": "stakingActiveDate",
                    "type": "uint256"
                },
                {
                    "name": "amountStaked",
                    "type": "uint256"
                },
                {
                    "name": "rewards",
                    "type": "uint256"
                }
            ],
            "payable": false,
            "stateMutability": "view",
            "type": "function"
        },
        {
            "constant": true,
            "inputs": [
                {
                    "name": "surveyName",
                    "type": "bytes32"
                }
            ],
            "name": "getVoteInfo",
            "outputs": [
                {
                    "name": "voted",
                    "type": "bool"
                },
                {
                    "name": "dateVoted",
                    "type": "uint256"
                }
            ],
            "payable": false,
            "stateMutability": "view",
            "type": "function"
        },
        {
            "constant": true,
            "inputs": [
                {
                    "name": "surveyName",
                    "type": "bytes32"
                }
            ],
            "name": "getVotedOptions",
            "outputs": [
                {
                    "name": "votedOptions",
                    "type": "bytes32[]"
                }
            ],
            "payable": false,
            "stateMutability": "view",
            "type": "function"
        },
        {
            "constant": true,
            "inputs": [
                {
                    "name": "surveyName",
                    "type": "bytes32"
                }
            ],
            "name": "getSurveyResult",
            "outputs": [
                {
                    "name": "",
                    "type": "bytes32[]"
                },
                {
                    "name": "",
                    "type": "uint256[]"
                },
                {
                    "name": "",
                    "type": "uint256[]"
                }
            ],
            "payable": false,
            "stateMutability": "view",
            "type": "function"
        },
        {
            "constant": true,
            "inputs": [
                {
                    "name": "surveyName",
                    "type": "bytes32"
                }
            ],
            "name": "getRewardInfo",
            "outputs": [
                {
                    "name": "",
                    "type": "address[]"
                },
                {
                    "name": "",
                    "type": "uint256[]"
                },
                {
                    "name": "",
                    "type": "uint256[]"
                },
                {
                    "name": "",
                    "type": "bool[]"
                },
                {
                    "name": "",
                    "type": "bool[]"
                }
            ],
            "payable": false,
            "stateMutability": "view",
            "type": "function"
        },
        {
            "constant": true,
            "inputs": [
                {
                    "name": "surveyName",
                    "type": "bytes32"
                },
                {
                    "name": "date",
                    "type": "uint256"
                }
            ],
            "name": "getParticipantsPendingPayment",
            "outputs": [
                {
                    "name": "",
                    "type": "address[]"
                },
                {
                    "name": "",
                    "type": "bool[]"
                }
            ],
            "payable": false,
            "stateMutability": "view",
            "type": "function"
        }
    ],
    "bytecode": "0x608060405234801561001057600080fd5b50604051604080614b91833981018060405281019080805190602001909291908051906020019092919050505033600260006101000a81548173ffffffffffffffffffffffffffffffffffffffff021916908373ffffffffffffffffffffffffffffffffffffffff16021790555060016000803373ffffffffffffffffffffffffffffffffffffffff1673ffffffffffffffffffffffffffffffffffffffff16815260200190815260200160002060006101000a81548160ff0219169083151502179055506000600160003373ffffffffffffffffffffffffffffffffffffffff1673ffffffffffffffffffffffffffffffffffffffff1681526020019081526020016000208190555081600360006101000a81548173ffffffffffffffffffffffffffffffffffffffff021916908373ffffffffffffffffffffffffffffffffffffffff16021790555080600460006101000a81548173ffffffffffffffffffffffffffffffffffffffff021916908373ffffffffffffffffffffffffffffffffffffffff16021790555050506149e4806101ad6000396000f300608060405260043610610169576000357c0100000000000000000000000000000000000000000000000000000000900463ffffffff168062485f061461016e5780630273c8f8146101ad57806305af5a40146101e85780630ae274551461024657806312065fe0146102a3578063250a0b3a146102ce5780633406fb6a146102f9578063486e28e91461033c57806349e04e1d146104e25780635548229a146105ba5780635f1de4e61461068c5780636be684d4146107a257806372595328146107e75780637a1bc375146108465780637a68f5d2146108b25780637fcb29c9146108ed57806383197ef01461095257806390bb77b31461096957806397893d08146109ce5780639b15f84f14610a11578063a9bdbf8914610a4c578063c681106214610a77578063d6fc8ba014610b8d578063d9124b9014610bd0578063e62092be14610c15578063e860d98014610c7a578063edef9aed14610cdf578063fd7f643d14610d65575b600080fd5b34801561017a57600080fd5b506101ab60048036038101908080356000191690602001909291908035600019169060200190929190505050610db5565b005b3480156101b957600080fd5b506101e6600480360381019080803560001916906020019092919080359060200190929190505050610fb6565b005b3480156101f457600080fd5b5061021760048036038101908080356000191690602001909291905050506111a8565b604051808515151515815260200184815260200183815260200182815260200194505050505060405180910390f35b34801561025257600080fd5b506102a1600480360381019080803560001916906020019092919080359060200190820180359060200191909192939192939080359060200190929190803590602001909291905050506112e3565b005b3480156102af57600080fd5b506102b8611532565b6040518082815260200191505060405180910390f35b3480156102da57600080fd5b506102e3611631565b6040518082815260200191505060405180910390f35b34801561030557600080fd5b5061033a600480360381019080803573ffffffffffffffffffffffffffffffffffffffff1690602001909291905050506116f9565b005b34801561034857600080fd5b5061036b6004803603810190808035600019169060200190929190505050611b54565b60405180806020018060200180602001806020018060200186810386528b818151815260200191508051906020019060200280838360005b838110156103be5780820151818401526020810190506103a3565b5050505090500186810385528a818151815260200191508051906020019060200280838360005b838110156104005780820151818401526020810190506103e5565b50505050905001868103845289818151815260200191508051906020019060200280838360005b83811015610442578082015181840152602081019050610427565b50505050905001868103835288818151815260200191508051906020019060200280838360005b83811015610484578082015181840152602081019050610469565b50505050905001868103825287818151815260200191508051906020019060200280838360005b838110156104c65780820151818401526020810190506104ab565b505050509050019a505050505050505050505060405180910390f35b3480156104ee57600080fd5b5061051b600480360381019080803560001916906020019092919080359060200190929190505050611ec3565b604051808060200180602001838103835285818151815260200191508051906020019060200280838360005b83811015610562578082015181840152602081019050610547565b50505050905001838103825284818151815260200191508051906020019060200280838360005b838110156105a4578082015181840152602081019050610589565b5050505090500194505050505060405180910390f35b3480156105c657600080fd5b506105e96004803603810190808035600019169060200190929190505050612140565b6040518080602001861515151581526020018581526020018481526020018373ffffffffffffffffffffffffffffffffffffffff1673ffffffffffffffffffffffffffffffffffffffff168152602001828103825287818151815260200191508051906020019060200280838360005b83811015610674578082015181840152602081019050610659565b50505050905001965050505050505060405180910390f35b34801561069857600080fd5b506106bb60048036038101908080356000191690602001909291905050506122b0565b60405180806020018060200180602001848103845287818151815260200191508051906020019060200280838360005b838110156107065780820151818401526020810190506106eb565b50505050905001848103835286818151815260200191508051906020019060200280838360005b8381101561074857808201518184015260208101905061072d565b50505050905001848103825285818151815260200191508051906020019060200280838360005b8381101561078a57808201518184015260208101905061076f565b50505050905001965050505050505060405180910390f35b3480156107ae57600080fd5b506107e56004803603810190808035600019169060200190929190803590602001909291908035906020019092919050505061248a565b005b3480156107f357600080fd5b50610844600480360381019080803560001916906020019092919080356000191690602001909291908035151590602001909291908035906020019092919080359060200190929190505050612bf6565b005b34801561085257600080fd5b5061085b6130e6565b6040518080602001828103825283818151815260200191508051906020019060200280838360005b8381101561089e578082015181840152602081019050610883565b505050509050019250505060405180910390f35b3480156108be57600080fd5b506108eb600480360381019080803560001916906020019092919080359060200190929190505050613204565b005b3480156108f957600080fd5b50610938600480360381019080803573ffffffffffffffffffffffffffffffffffffffff169060200190929190803590602001909291905050506137f5565b604051808215151515815260200191505060405180910390f35b34801561095e57600080fd5b50610967613989565b005b34801561097557600080fd5b506109cc6004803603810190808035600019169060200190929190803573ffffffffffffffffffffffffffffffffffffffff1690602001909291908035906020019092919080359060200190929190505050613a20565b005b3480156109da57600080fd5b50610a0f600480360381019080803573ffffffffffffffffffffffffffffffffffffffff169060200190929190505050613b9e565b005b348015610a1d57600080fd5b50610a4a600480360381019080803560001916906020019092919080359060200190929190505050613cd0565b005b348015610a5857600080fd5b50610a61613ec2565b6040518082815260200191505060405180910390f35b348015610a8357600080fd5b50610aa66004803603810190808035600019169060200190929190505050613fc1565b60405180806020018060200180602001848103845287818151815260200191508051906020019060200280838360005b83811015610af1578082015181840152602081019050610ad6565b50505050905001848103835286818151815260200191508051906020019060200280838360005b83811015610b33578082015181840152602081019050610b18565b50505050905001848103825285818151815260200191508051906020019060200280838360005b83811015610b75578082015181840152602081019050610b5a565b50505050905001965050505050505060405180910390f35b348015610b9957600080fd5b50610bce600480360381019080803573ffffffffffffffffffffffffffffffffffffffff16906020019092919050505061419b565b005b348015610bdc57600080fd5b50610bff60048036038101908080356000191690602001909291905050506142cd565b6040518082815260200191505060405180910390f35b348015610c2157600080fd5b50610c60600480360381019080803573ffffffffffffffffffffffffffffffffffffffff169060200190929190803590602001909291905050506143aa565b604051808215151515815260200191505060405180910390f35b348015610c8657600080fd5b50610cdd6004803603810190808035600019169060200190929190803573ffffffffffffffffffffffffffffffffffffffff1690602001909291908035906020019092919080359060200190929190505050614494565b005b348015610ceb57600080fd5b50610d0e6004803603810190808035600019169060200190929190505050614734565b6040518080602001828103825283818151815260200191508051906020019060200280838360005b83811015610d51578082015181840152602081019050610d36565b505050509050019250505060405180910390f35b348015610d7157600080fd5b50610d94600480360381019080803560001916906020019092919050505061489b565b60405180831515151581526020018281526020019250505060405180910390f35b60016000803373ffffffffffffffffffffffffffffffffffffffff1673ffffffffffffffffffffffffffffffffffffffff16815260200190815260200160002060009054906101000a900460ff168015610e9757506000600160003373ffffffffffffffffffffffffffffffffffffffff1673ffffffffffffffffffffffffffffffffffffffff168152602001908152602001600020541480610e96575080600160003373ffffffffffffffffffffffffffffffffffffffff1673ffffffffffffffffffffffffffffffffffffffff16815260200190815260200160002054145b5b1515610ea257600080fd5b600360009054906101000a900473ffffffffffffffffffffffffffffffffffffffff1673ffffffffffffffffffffffffffffffffffffffff1662485f0684846040518363ffffffff167c0100000000000000000000000000000000000000000000000000000000028152600401808360001916600019168152602001826000191660001916815260200192505050600060405180830381600087803b158015610f4a57600080fd5b505af1158015610f5e573d6000803e3d6000fd5b505050507f1585cc77da1c25e27261f02e7603929a635c9db815cc09434478b720c1981c21838360405180836000191660001916815260200182600019166000191681526020019250505060405180910390a1505050565b60016000803373ffffffffffffffffffffffffffffffffffffffff1673ffffffffffffffffffffffffffffffffffffffff16815260200190815260200160002060009054906101000a900460ff16801561109857506000600160003373ffffffffffffffffffffffffffffffffffffffff1673ffffffffffffffffffffffffffffffffffffffff168152602001908152602001600020541480611097575080600160003373ffffffffffffffffffffffffffffffffffffffff1673ffffffffffffffffffffffffffffffffffffffff16815260200190815260200160002054145b5b15156110a357600080fd5b600360009054906101000a900473ffffffffffffffffffffffffffffffffffffffff1673ffffffffffffffffffffffffffffffffffffffff16630273c8f884846040518363ffffffff167c010000000000000000000000000000000000000000000000000000000002815260040180836000191660001916815260200182815260200192505050600060405180830381600087803b15801561114457600080fd5b505af1158015611158573d6000803e3d6000fd5b505050507f28387c9fa25620611ec1bae41dc8b1aeb10d6734e9a8704f1dc74d48ed228f4f83836040518083600019166000191681526020018281526020019250505060405180910390a1505050565b600080600080600360009054906101000a900473ffffffffffffffffffffffffffffffffffffffff1673ffffffffffffffffffffffffffffffffffffffff1663c58dc12386336040518363ffffffff167c01000000000000000000000000000000000000000000000000000000000281526004018083600019166000191681526020018273ffffffffffffffffffffffffffffffffffffffff1673ffffffffffffffffffffffffffffffffffffffff16815260200192505050608060405180830381600087803b15801561127b57600080fd5b505af115801561128f573d6000803e3d6000fd5b505050506040513d60808110156112a557600080fd5b810190808051906020019092919080519060200190929190805190602001909291908051906020019092919050505093509350935093509193509193565b60016000803373ffffffffffffffffffffffffffffffffffffffff1673ffffffffffffffffffffffffffffffffffffffff16815260200190815260200160002060009054906101000a900460ff1680156113c557506000600160003373ffffffffffffffffffffffffffffffffffffffff1673ffffffffffffffffffffffffffffffffffffffff1681526020019081526020016000205414806113c4575080600160003373ffffffffffffffffffffffffffffffffffffffff1673ffffffffffffffffffffffffffffffffffffffff16815260200190815260200160002054145b5b15156113d057600080fd5b600360009054906101000a900473ffffffffffffffffffffffffffffffffffffffff1673ffffffffffffffffffffffffffffffffffffffff16630ae2745587878787876040518663ffffffff167c010000000000000000000000000000000000000000000000000000000002815260040180866000191660001916815260200180602001848152602001838152602001828103825286868281815260200192506020028082843782019150509650505050505050600060405180830381600087803b15801561149e57600080fd5b505af11580156114b2573d6000803e3d6000fd5b505050507fbfc4581bf4d5d7ccaa8698d415cb14d3e08a5dc16a95f23e7b4fa365aac5fbce86868686866040518086600019166000191681526020018060200184815260200183815260200182810382528686828181526020019250602002808284378201915050965050505050505060405180910390a1505050505050565b6000600460009054906101000a900473ffffffffffffffffffffffffffffffffffffffff1673ffffffffffffffffffffffffffffffffffffffff166370a08231336040518263ffffffff167c0100000000000000000000000000000000000000000000000000000000028152600401808273ffffffffffffffffffffffffffffffffffffffff1673ffffffffffffffffffffffffffffffffffffffff168152602001915050602060405180830381600087803b1580156115f157600080fd5b505af1158015611605573d6000803e3d6000fd5b505050506040513d602081101561161b57600080fd5b8101908080519060200190929190505050905090565b6000600360009054906101000a900473ffffffffffffffffffffffffffffffffffffffff1673ffffffffffffffffffffffffffffffffffffffff1663250a0b3a6040518163ffffffff167c0100000000000000000000000000000000000000000000000000000000028152600401602060405180830381600087803b1580156116b957600080fd5b505af11580156116cd573d6000803e3d6000fd5b505050506040513d60208110156116e357600080fd5b8101908080519060200190929190505050905090565b600060016000803373ffffffffffffffffffffffffffffffffffffffff1673ffffffffffffffffffffffffffffffffffffffff16815260200190815260200160002060009054906101000a900460ff1680156117dd57506000600160003373ffffffffffffffffffffffffffffffffffffffff1673ffffffffffffffffffffffffffffffffffffffff1681526020019081526020016000205414806117dc575080600160003373ffffffffffffffffffffffffffffffffffffffff1673ffffffffffffffffffffffffffffffffffffffff16815260200190815260200160002054145b5b15156117e857600080fd5b600360009054906101000a900473ffffffffffffffffffffffffffffffffffffffff1673ffffffffffffffffffffffffffffffffffffffff16635104c819846040518263ffffffff167c0100000000000000000000000000000000000000000000000000000000028152600401808273ffffffffffffffffffffffffffffffffffffffff1673ffffffffffffffffffffffffffffffffffffffff168152602001915050602060405180830381600087803b1580156118a557600080fd5b505af11580156118b9573d6000803e3d6000fd5b505050506040513d60208110156118cf57600080fd5b81019080805190602001909291905050509150600460009054906101000a900473ffffffffffffffffffffffffffffffffffffffff1673ffffffffffffffffffffffffffffffffffffffff1663a9059cbb33846040518363ffffffff167c0100000000000000000000000000000000000000000000000000000000028152600401808373ffffffffffffffffffffffffffffffffffffffff1673ffffffffffffffffffffffffffffffffffffffff16815260200182815260200192505050602060405180830381600087803b1580156119a757600080fd5b505af11580156119bb573d6000803e3d6000fd5b505050506040513d60208110156119d157600080fd5b810190808051906020019092919050505050600360009054906101000a900473ffffffffffffffffffffffffffffffffffffffff1673ffffffffffffffffffffffffffffffffffffffff16633c664e4c846040518263ffffffff167c0100000000000000000000000000000000000000000000000000000000028152600401808273ffffffffffffffffffffffffffffffffffffffff1673ffffffffffffffffffffffffffffffffffffffff168152602001915050600060405180830381600087803b158015611aa057600080fd5b505af1158015611ab4573d6000803e3d6000fd5b505050507f0230df31487cdef8ae52240903f10b2ef65a22a910a66d14b344e8f640747b188333604051808373ffffffffffffffffffffffffffffffffffffffff1673ffffffffffffffffffffffffffffffffffffffff1681526020018273ffffffffffffffffffffffffffffffffffffffff1673ffffffffffffffffffffffffffffffffffffffff1681526020019250505060405180910390a1505050565b606080606080606060016000803373ffffffffffffffffffffffffffffffffffffffff1673ffffffffffffffffffffffffffffffffffffffff16815260200190815260200160002060009054906101000a900460ff168015611c3e57506000600160003373ffffffffffffffffffffffffffffffffffffffff1673ffffffffffffffffffffffffffffffffffffffff168152602001908152602001600020541480611c3d575080600160003373ffffffffffffffffffffffffffffffffffffffff1673ffffffffffffffffffffffffffffffffffffffff16815260200190815260200160002054145b5b1515611c4957600080fd5b600360009054906101000a900473ffffffffffffffffffffffffffffffffffffffff1673ffffffffffffffffffffffffffffffffffffffff1663486e28e9886040518263ffffffff167c0100000000000000000000000000000000000000000000000000000000028152600401808260001916600019168152602001915050600060405180830381600087803b158015611ce257600080fd5b505af1158015611cf6573d6000803e3d6000fd5b505050506040513d6000823e3d601f19601f8201168201806040525060a0811015611d2057600080fd5b810190808051640100000000811115611d3857600080fd5b82810190506020810184811115611d4e57600080fd5b8151856020820283011164010000000082111715611d6b57600080fd5b50509291906020018051640100000000811115611d8757600080fd5b82810190506020810184811115611d9d57600080fd5b8151856020820283011164010000000082111715611dba57600080fd5b50509291906020018051640100000000811115611dd657600080fd5b82810190506020810184811115611dec57600080fd5b8151856020820283011164010000000082111715611e0957600080fd5b50509291906020018051640100000000811115611e2557600080fd5b82810190506020810184811115611e3b57600080fd5b8151856020820283011164010000000082111715611e5857600080fd5b50509291906020018051640100000000811115611e7457600080fd5b82810190506020810184811115611e8a57600080fd5b8151856020820283011164010000000082111715611ea757600080fd5b5050929190505050955095509550955095505091939590929450565b60608060016000803373ffffffffffffffffffffffffffffffffffffffff1673ffffffffffffffffffffffffffffffffffffffff16815260200190815260200160002060009054906101000a900460ff168015611fa857506000600160003373ffffffffffffffffffffffffffffffffffffffff1673ffffffffffffffffffffffffffffffffffffffff168152602001908152602001600020541480611fa7575080600160003373ffffffffffffffffffffffffffffffffffffffff1673ffffffffffffffffffffffffffffffffffffffff16815260200190815260200160002054145b5b1515611fb357600080fd5b600360009054906101000a900473ffffffffffffffffffffffffffffffffffffffff1673ffffffffffffffffffffffffffffffffffffffff166349e04e1d86866040518363ffffffff167c010000000000000000000000000000000000000000000000000000000002815260040180836000191660001916815260200182815260200192505050600060405180830381600087803b15801561205457600080fd5b505af1158015612068573d6000803e3d6000fd5b505050506040513d6000823e3d601f19601f82011682018060405250604081101561209257600080fd5b8101908080516401000000008111156120aa57600080fd5b828101905060208101848111156120c057600080fd5b81518560208202830111640100000000821117156120dd57600080fd5b505092919060200180516401000000008111156120f957600080fd5b8281019050602081018481111561210f57600080fd5b815185602082028301116401000000008211171561212c57600080fd5b505092919050505092509250509250929050565b6060600080600080600360009054906101000a900473ffffffffffffffffffffffffffffffffffffffff1673ffffffffffffffffffffffffffffffffffffffff16635548229a876040518263ffffffff167c0100000000000000000000000000000000000000000000000000000000028152600401808260001916600019168152602001915050600060405180830381600087803b1580156121e157600080fd5b505af11580156121f5573d6000803e3d6000fd5b505050506040513d6000823e3d601f19601f8201168201806040525060a081101561221f57600080fd5b81019080805164010000000081111561223757600080fd5b8281019050602081018481111561224d57600080fd5b815185602082028301116401000000008211171561226a57600080fd5b5050929190602001805190602001909291908051906020019092919080519060200190929190805190602001909291905050509450945094509450945091939590929450565b6060806060600360009054906101000a900473ffffffffffffffffffffffffffffffffffffffff1673ffffffffffffffffffffffffffffffffffffffff16635f1de4e6856040518263ffffffff167c0100000000000000000000000000000000000000000000000000000000028152600401808260001916600019168152602001915050600060405180830381600087803b15801561234e57600080fd5b505af1158015612362573d6000803e3d6000fd5b505050506040513d6000823e3d601f19601f82011682018060405250606081101561238c57600080fd5b8101908080516401000000008111156123a457600080fd5b828101905060208101848111156123ba57600080fd5b81518560208202830111640100000000821117156123d757600080fd5b505092919060200180516401000000008111156123f357600080fd5b8281019050602081018481111561240957600080fd5b815185602082028301116401000000008211171561242657600080fd5b5050929190602001805164010000000081111561244257600080fd5b8281019050602081018481111561245857600080fd5b815185602082028301116401000000008211171561247557600080fd5b50509291905050509250925092509193909250565b60006001600460009054906101000a900473ffffffffffffffffffffffffffffffffffffffff1673ffffffffffffffffffffffffffffffffffffffff166370a08231336040518263ffffffff167c0100000000000000000000000000000000000000000000000000000000028152600401808273ffffffffffffffffffffffffffffffffffffffff1673ffffffffffffffffffffffffffffffffffffffff168152602001915050602060405180830381600087803b15801561254b57600080fd5b505af115801561255f573d6000803e3d6000fd5b505050506040513d602081101561257557600080fd5b8101908080519060200190929190505050111515612621576040517f08c379a00000000000000000000000000000000000000000000000000000000081526004018080602001828103825260238152602001807f546865207061727469636970616e7420686173206e6f7420656e6f756768742081526020017f414854000000000000000000000000000000000000000000000000000000000081525060400191505060405180910390fd5b82600460009054906101000a900473ffffffffffffffffffffffffffffffffffffffff1673ffffffffffffffffffffffffffffffffffffffff166370a08231336040518263ffffffff167c0100000000000000000000000000000000000000000000000000000000028152600401808273ffffffffffffffffffffffffffffffffffffffff1673ffffffffffffffffffffffffffffffffffffffff168152602001915050602060405180830381600087803b1580156126df57600080fd5b505af11580156126f3573d6000803e3d6000fd5b505050506040513d602081101561270957600080fd5b81019080805190602001909291905050501115156127b5576040517f08c379a000000000000000000000000000000000000000000000000000000000815260040180806020018281038252602c8152602001807f546865207061727469636970616e7420686173206e6f7420656e6f756768742081526020017f41485420746f207370656e64000000000000000000000000000000000000000081525060400191505060405180910390fd5b600460009054906101000a900473ffffffffffffffffffffffffffffffffffffffff1673ffffffffffffffffffffffffffffffffffffffff1663dd62ed3e33306040518363ffffffff167c0100000000000000000000000000000000000000000000000000000000028152600401808373ffffffffffffffffffffffffffffffffffffffff1673ffffffffffffffffffffffffffffffffffffffff1681526020018273ffffffffffffffffffffffffffffffffffffffff1673ffffffffffffffffffffffffffffffffffffffff16815260200192505050602060405180830381600087803b1580156128a657600080fd5b505af11580156128ba573d6000803e3d6000fd5b505050506040513d60208110156128d057600080fd5b8101908080519060200190929190505050905082811015151561295b576040517f08c379a00000000000000000000000000000000000000000000000000000000081526004018080602001828103825260198152602001807f436865636b2074686520746f6b656e20616c6c6f77616e63650000000000000081525060200191505060405180910390fd5b600360009054906101000a900473ffffffffffffffffffffffffffffffffffffffff1673ffffffffffffffffffffffffffffffffffffffff16630ca1c96c858533866040518563ffffffff167c01000000000000000000000000000000000000000000000000000000000281526004018085600019166000191681526020018481526020018373ffffffffffffffffffffffffffffffffffffffff1673ffffffffffffffffffffffffffffffffffffffff168152602001828152602001945050505050600060405180830381600087803b158015612a3857600080fd5b505af1158015612a4c573d6000803e3d6000fd5b50505050600460009054906101000a900473ffffffffffffffffffffffffffffffffffffffff1673ffffffffffffffffffffffffffffffffffffffff166323b872dd3330866040518463ffffffff167c0100000000000000000000000000000000000000000000000000000000028152600401808473ffffffffffffffffffffffffffffffffffffffff1673ffffffffffffffffffffffffffffffffffffffff1681526020018373ffffffffffffffffffffffffffffffffffffffff1673ffffffffffffffffffffffffffffffffffffffff1681526020018281526020019350505050602060405180830381600087803b158015612b4957600080fd5b505af1158015612b5d573d6000803e3d6000fd5b505050506040513d6020811015612b7357600080fd5b8101908080519060200190929190505050507f6a6b6824a0d2fbb46fd04847ae2472ed77e6e84c87e092e77429d2817ca0c70a8333604051808381526020018273ffffffffffffffffffffffffffffffffffffffff1673ffffffffffffffffffffffffffffffffffffffff1681526020019250505060405180910390a150505050565b60006001600460009054906101000a900473ffffffffffffffffffffffffffffffffffffffff1673ffffffffffffffffffffffffffffffffffffffff166370a08231336040518263ffffffff167c0100000000000000000000000000000000000000000000000000000000028152600401808273ffffffffffffffffffffffffffffffffffffffff1673ffffffffffffffffffffffffffffffffffffffff168152602001915050602060405180830381600087803b158015612cb757600080fd5b505af1158015612ccb573d6000803e3d6000fd5b505050506040513d6020811015612ce157600080fd5b8101908080519060200190929190505050111515612d8d576040517f08c379a00000000000000000000000000000000000000000000000000000000081526004018080602001828103825260238152602001807f546865207061727469636970616e7420686173206e6f7420656e6f756768742081526020017f414854000000000000000000000000000000000000000000000000000000000081525060400191505060405180910390fd5b600360009054906101000a900473ffffffffffffffffffffffffffffffffffffffff1673ffffffffffffffffffffffffffffffffffffffff16635104c819336040518263ffffffff167c0100000000000000000000000000000000000000000000000000000000028152600401808273ffffffffffffffffffffffffffffffffffffffff1673ffffffffffffffffffffffffffffffffffffffff168152602001915050602060405180830381600087803b158015612e4a57600080fd5b505af1158015612e5e573d6000803e3d6000fd5b505050506040513d6020811015612e7457600080fd5b8101908080519060200190929190505050905060008110151515612f26576040517f08c379a00000000000000000000000000000000000000000000000000000000081526004018080602001828103825260248152602001807f496e73756666696369656e74204148542e20596f75206e65656420746f20737481526020017f616b652e0000000000000000000000000000000000000000000000000000000081525060400191505060405180910390fd5b600360009054906101000a900473ffffffffffffffffffffffffffffffffffffffff1673ffffffffffffffffffffffffffffffffffffffff16636545420a878784888833896040518863ffffffff167c01000000000000000000000000000000000000000000000000000000000281526004018088600019166000191681526020018760001916600019168152602001868152602001851515151581526020018481526020018373ffffffffffffffffffffffffffffffffffffffff1673ffffffffffffffffffffffffffffffffffffffff168152602001828152602001975050505050505050600060405180830381600087803b15801561302757600080fd5b505af115801561303b573d6000803e3d6000fd5b505050507f024009d29e604804e297db3f0d73f1e6896dbbc6e44600a6d67899c850d4d0268686838787336040518087600019166000191681526020018660001916600019168152602001858152602001841515151581526020018381526020018273ffffffffffffffffffffffffffffffffffffffff1673ffffffffffffffffffffffffffffffffffffffff168152602001965050505050505060405180910390a1505050505050565b6060600360009054906101000a900473ffffffffffffffffffffffffffffffffffffffff1673ffffffffffffffffffffffffffffffffffffffff16637a1bc3756040518163ffffffff167c0100000000000000000000000000000000000000000000000000000000028152600401600060405180830381600087803b15801561316e57600080fd5b505af1158015613182573d6000803e3d6000fd5b505050506040513d6000823e3d601f19601f8201168201806040525060208110156131ac57600080fd5b8101908080516401000000008111156131c457600080fd5b828101905060208101848111156131da57600080fd5b81518560208202830111640100000000821117156131f757600080fd5b5050929190505050905090565b600080600360009054906101000a900473ffffffffffffffffffffffffffffffffffffffff1673ffffffffffffffffffffffffffffffffffffffff16633004fb3f8533866040518463ffffffff167c01000000000000000000000000000000000000000000000000000000000281526004018084600019166000191681526020018373ffffffffffffffffffffffffffffffffffffffff1673ffffffffffffffffffffffffffffffffffffffff1681526020018281526020019350505050602060405180830381600087803b1580156132dc57600080fd5b505af11580156132f0573d6000803e3d6000fd5b505050506040513d602081101561330657600080fd5b81019080805190602001909291905050509150811561368757600360009054906101000a900473ffffffffffffffffffffffffffffffffffffffff1673ffffffffffffffffffffffffffffffffffffffff16635104c819336040518263ffffffff167c0100000000000000000000000000000000000000000000000000000000028152600401808273ffffffffffffffffffffffffffffffffffffffff1673ffffffffffffffffffffffffffffffffffffffff168152602001915050602060405180830381600087803b1580156133dc57600080fd5b505af11580156133f0573d6000803e3d6000fd5b505050506040513d602081101561340657600080fd5b81019080805190602001909291905050509050600460009054906101000a900473ffffffffffffffffffffffffffffffffffffffff1673ffffffffffffffffffffffffffffffffffffffff1663a9059cbb33836040518363ffffffff167c0100000000000000000000000000000000000000000000000000000000028152600401808373ffffffffffffffffffffffffffffffffffffffff1673ffffffffffffffffffffffffffffffffffffffff16815260200182815260200192505050602060405180830381600087803b1580156134de57600080fd5b505af11580156134f2573d6000803e3d6000fd5b505050506040513d602081101561350857600080fd5b810190808051906020019092919050505050600360009054906101000a900473ffffffffffffffffffffffffffffffffffffffff1673ffffffffffffffffffffffffffffffffffffffff16633c664e4c336040518263ffffffff167c0100000000000000000000000000000000000000000000000000000000028152600401808273ffffffffffffffffffffffffffffffffffffffff1673ffffffffffffffffffffffffffffffffffffffff168152602001915050600060405180830381600087803b1580156135d757600080fd5b505af11580156135eb573d6000803e3d6000fd5b505050507f0230df31487cdef8ae52240903f10b2ef65a22a910a66d14b344e8f640747b183330604051808373ffffffffffffffffffffffffffffffffffffffff1673ffffffffffffffffffffffffffffffffffffffff1681526020018273ffffffffffffffffffffffffffffffffffffffff1673ffffffffffffffffffffffffffffffffffffffff1681526020019250505060405180910390a15b600360009054906101000a900473ffffffffffffffffffffffffffffffffffffffff1673ffffffffffffffffffffffffffffffffffffffff1663731cc7058533866040518463ffffffff167c01000000000000000000000000000000000000000000000000000000000281526004018084600019166000191681526020018373ffffffffffffffffffffffffffffffffffffffff1673ffffffffffffffffffffffffffffffffffffffff1681526020018281526020019350505050600060405180830381600087803b15801561375c57600080fd5b505af1158015613770573d6000803e3d6000fd5b505050507f9ffc7553c035388ae68d914dda6977ac06a804ec158df1acfeae969e49b95b648433856040518084600019166000191681526020018373ffffffffffffffffffffffffffffffffffffffff1673ffffffffffffffffffffffffffffffffffffffff168152602001828152602001935050505060405180910390a150505050565b6000806000803373ffffffffffffffffffffffffffffffffffffffff1673ffffffffffffffffffffffffffffffffffffffff16815260200190815260200160002060009054906101000a900460ff1680156138d857506000600160003373ffffffffffffffffffffffffffffffffffffffff1673ffffffffffffffffffffffffffffffffffffffff1681526020019081526020016000205414806138d7575080600160003373ffffffffffffffffffffffffffffffffffffffff1673ffffffffffffffffffffffffffffffffffffffff16815260200190815260200160002054145b5b15156138e357600080fd5b60016000808673ffffffffffffffffffffffffffffffffffffffff1673ffffffffffffffffffffffffffffffffffffffff16815260200190815260200160002060006101000a81548160ff02191690831515021790555082600160008673ffffffffffffffffffffffffffffffffffffffff1673ffffffffffffffffffffffffffffffffffffffff16815260200190815260200160002081905550600191505092915050565b3373ffffffffffffffffffffffffffffffffffffffff16600260009054906101000a900473ffffffffffffffffffffffffffffffffffffffff1673ffffffffffffffffffffffffffffffffffffffff161415156139e557600080fd5b600260009054906101000a900473ffffffffffffffffffffffffffffffffffffffff1673ffffffffffffffffffffffffffffffffffffffff16ff5b600360009054906101000a900473ffffffffffffffffffffffffffffffffffffffff1673ffffffffffffffffffffffffffffffffffffffff166390bb77b3858585856040518563ffffffff167c01000000000000000000000000000000000000000000000000000000000281526004018085600019166000191681526020018473ffffffffffffffffffffffffffffffffffffffff1673ffffffffffffffffffffffffffffffffffffffff168152602001838152602001828152602001945050505050600060405180830381600087803b158015613afd57600080fd5b505af1158015613b11573d6000803e3d6000fd5b505050507fff4f1f36dd69666a2d94fc9e563940b8b8efcf12c5f361488192919928264de9848484846040518085600019166000191681526020018473ffffffffffffffffffffffffffffffffffffffff1673ffffffffffffffffffffffffffffffffffffffff16815260200183815260200182815260200194505050505060405180910390a150505050565b60008060003373ffffffffffffffffffffffffffffffffffffffff1673ffffffffffffffffffffffffffffffffffffffff16815260200190815260200160002060009054906101000a900460ff168015613c8057506000600160003373ffffffffffffffffffffffffffffffffffffffff1673ffffffffffffffffffffffffffffffffffffffff168152602001908152602001600020541480613c7f575080600160003373ffffffffffffffffffffffffffffffffffffffff1673ffffffffffffffffffffffffffffffffffffffff16815260200190815260200160002054145b5b1515613c8b57600080fd5b81600360006101000a81548173ffffffffffffffffffffffffffffffffffffffff021916908373ffffffffffffffffffffffffffffffffffffffff1602179055505050565b60016000803373ffffffffffffffffffffffffffffffffffffffff1673ffffffffffffffffffffffffffffffffffffffff16815260200190815260200160002060009054906101000a900460ff168015613db257506000600160003373ffffffffffffffffffffffffffffffffffffffff1673ffffffffffffffffffffffffffffffffffffffff168152602001908152602001600020541480613db1575080600160003373ffffffffffffffffffffffffffffffffffffffff1673ffffffffffffffffffffffffffffffffffffffff16815260200190815260200160002054145b5b1515613dbd57600080fd5b600360009054906101000a900473ffffffffffffffffffffffffffffffffffffffff1673ffffffffffffffffffffffffffffffffffffffff16639b15f84f84846040518363ffffffff167c010000000000000000000000000000000000000000000000000000000002815260040180836000191660001916815260200182815260200192505050600060405180830381600087803b158015613e5e57600080fd5b505af1158015613e72573d6000803e3d6000fd5b505050507f9b8eac33af7cf0814805ac2ecbb649aa0e7976659456724268545e85ad7f399683836040518083600019166000191681526020018281526020019250505060405180910390a1505050565b6000600360009054906101000a900473ffffffffffffffffffffffffffffffffffffffff1673ffffffffffffffffffffffffffffffffffffffff16635104c819336040518263ffffffff167c0100000000000000000000000000000000000000000000000000000000028152600401808273ffffffffffffffffffffffffffffffffffffffff1673ffffffffffffffffffffffffffffffffffffffff168152602001915050602060405180830381600087803b158015613f8157600080fd5b505af1158015613f95573d6000803e3d6000fd5b505050506040513d6020811015613fab57600080fd5b8101908080519060200190929190505050905090565b6060806060600360009054906101000a900473ffffffffffffffffffffffffffffffffffffffff1673ffffffffffffffffffffffffffffffffffffffff1663c6811062856040518263ffffffff167c0100000000000000000000000000000000000000000000000000000000028152600401808260001916600019168152602001915050600060405180830381600087803b15801561405f57600080fd5b505af1158015614073573d6000803e3d6000fd5b505050506040513d6000823e3d601f19601f82011682018060405250606081101561409d57600080fd5b8101908080516401000000008111156140b557600080fd5b828101905060208101848111156140cb57600080fd5b81518560208202830111640100000000821117156140e857600080fd5b5050929190602001805164010000000081111561410457600080fd5b8281019050602081018481111561411a57600080fd5b815185602082028301116401000000008211171561413757600080fd5b5050929190602001805164010000000081111561415357600080fd5b8281019050602081018481111561416957600080fd5b815185602082028301116401000000008211171561418657600080fd5b50509291905050509250925092509193909250565b60008060003373ffffffffffffffffffffffffffffffffffffffff1673ffffffffffffffffffffffffffffffffffffffff16815260200190815260200160002060009054906101000a900460ff16801561427d57506000600160003373ffffffffffffffffffffffffffffffffffffffff1673ffffffffffffffffffffffffffffffffffffffff16815260200190815260200160002054148061427c575080600160003373ffffffffffffffffffffffffffffffffffffffff1673ffffffffffffffffffffffffffffffffffffffff16815260200190815260200160002054145b5b151561428857600080fd5b81600460006101000a81548173ffffffffffffffffffffffffffffffffffffffff021916908373ffffffffffffffffffffffffffffffffffffffff1602179055505050565b6000600360009054906101000a900473ffffffffffffffffffffffffffffffffffffffff1673ffffffffffffffffffffffffffffffffffffffff1663d9124b90836040518263ffffffff167c0100000000000000000000000000000000000000000000000000000000028152600401808260001916600019168152602001915050602060405180830381600087803b15801561436857600080fd5b505af115801561437c573d6000803e3d6000fd5b505050506040513d602081101561439257600080fd5b81019080805190602001909291905050509050919050565b60008060008473ffffffffffffffffffffffffffffffffffffffff1673ffffffffffffffffffffffffffffffffffffffff16815260200190815260200160002060009054906101000a900460ff16801561448c57506000600160008573ffffffffffffffffffffffffffffffffffffffff1673ffffffffffffffffffffffffffffffffffffffff16815260200190815260200160002054148061448b575081600160008573ffffffffffffffffffffffffffffffffffffffff1673ffffffffffffffffffffffffffffffffffffffff16815260200190815260200160002054145b5b905092915050565b60016000803373ffffffffffffffffffffffffffffffffffffffff1673ffffffffffffffffffffffffffffffffffffffff16815260200190815260200160002060009054906101000a900460ff16801561457657506000600160003373ffffffffffffffffffffffffffffffffffffffff1673ffffffffffffffffffffffffffffffffffffffff168152602001908152602001600020541480614575575080600160003373ffffffffffffffffffffffffffffffffffffffff1673ffffffffffffffffffffffffffffffffffffffff16815260200190815260200160002054145b5b151561458157600080fd5b600360009054906101000a900473ffffffffffffffffffffffffffffffffffffffff1673ffffffffffffffffffffffffffffffffffffffff1663e860d980868686866040518563ffffffff167c01000000000000000000000000000000000000000000000000000000000281526004018085600019166000191681526020018473ffffffffffffffffffffffffffffffffffffffff1673ffffffffffffffffffffffffffffffffffffffff168152602001838152602001828152602001945050505050600060405180830381600087803b15801561465e57600080fd5b505af1158015614672573d6000803e3d6000fd5b505050507f570399b2dd4804315e1ff5df972b6d2d374baa4383632ed119acf9588c6ba48c85858585336040518086600019166000191681526020018573ffffffffffffffffffffffffffffffffffffffff1673ffffffffffffffffffffffffffffffffffffffff1681526020018481526020018381526020018273ffffffffffffffffffffffffffffffffffffffff1673ffffffffffffffffffffffffffffffffffffffff1681526020019550505050505060405180910390a15050505050565b6060600360009054906101000a900473ffffffffffffffffffffffffffffffffffffffff1673ffffffffffffffffffffffffffffffffffffffff1663f8bc6dd883336040518363ffffffff167c01000000000000000000000000000000000000000000000000000000000281526004018083600019166000191681526020018273ffffffffffffffffffffffffffffffffffffffff1673ffffffffffffffffffffffffffffffffffffffff16815260200192505050600060405180830381600087803b15801561480357600080fd5b505af1158015614817573d6000803e3d6000fd5b505050506040513d6000823e3d601f19601f82011682018060405250602081101561484157600080fd5b81019080805164010000000081111561485957600080fd5b8281019050602081018481111561486f57600080fd5b815185602082028301116401000000008211171561488c57600080fd5b50509291905050509050919050565b600080600360009054906101000a900473ffffffffffffffffffffffffffffffffffffffff1673ffffffffffffffffffffffffffffffffffffffff166364bed15584336040518363ffffffff167c01000000000000000000000000000000000000000000000000000000000281526004018083600019166000191681526020018273ffffffffffffffffffffffffffffffffffffffff1673ffffffffffffffffffffffffffffffffffffffff168152602001925050506040805180830381600087803b15801561496a57600080fd5b505af115801561497e573d6000803e3d6000fd5b505050506040513d604081101561499457600080fd5b810190808051906020019092919080519060200190929190505050915091509150915600a165627a7a72305820caca659938d88dbb3bad3598f8a9ed8c5ddc5049612ca5c977ab79016f97e0380029",
    "source": "pragma solidity 0.4.25;\n\nimport \"./ACL.sol\";\n\n/// @title SurveyDB Interface\ncontract SurveyDBInterface {\n    function getAllSurveys() public pure returns (bytes32[]);\n\n    function addSurvey(bytes32 name, bytes32[] options, uint endDate, uint256 rewardPool) public;\n\n    function addSurveyOption(bytes32 surveyName, bytes32 surveyOption) public;\n\n    function addStakingHistory(bytes32 surveyName, address sender, uint payoutType, uint date) public;\n\n    function updateSurveyEndDate(bytes32 surveyName, uint endDate) public;\n\n    function updateSurveyRewardPool(bytes32 surveyName, uint256 rewardPool) public;\n    \n    function saveAnswer(bytes32 surveyName, \n                        bytes32 participantOption, \n                        uint256 ahtVote,\n                        bool typeVote,\n                        uint typeReward, \n                        address participantAddress,\n                        uint dateVoted) public;\n    \n    function sendStake(bytes32 surveyName, uint256 amountStaked, address sender, uint stakeStartDate) public;\n\n    function stopStake(bytes32 surveyName, address sender, uint dateStop) public;\n\n    function sendReward(bytes32 surveyName, address participant, uint256 reward, uint datePayout) \n        public;\n    \n    function returnAmountStake(address sender) public;\n\n    function getSurvey(bytes32 surveyName) public pure \n        returns (bytes32[] options, bool exists, uint256 rewardPool, uint endDate, address owner);\n\n    function getSurveyRewardPool(bytes32 surveyName) public pure returns (uint256 rewardPool);\n\n    function getSurveyStakingHistory(bytes32 surveyName) public pure\n        returns (address[] sender, uint[] payoutType, uint[] time);\n    \n    function getTotalAmountStacked() public pure returns (uint256 amountStaked);\n\n    function getAmountStaked(address sender) public pure returns (uint256 amountStaked);\n\n    function getStakingInfo(bytes32 surveyName, address sender) public pure \n        returns (bool stakingActive, uint stakingActiveDate, uint256 amountStaked, uint256 rewards);\n    \n    function getVoteInfo(bytes32 surveyName, address sender) public pure returns (bool voted, uint dateVoted);\n    \n    function getVotedOptions(bytes32 surveyName, address sender) public pure returns (bytes32[] votedOptions);\n\n    function getSurveyResult(bytes32 surveyName) public pure returns (bytes32[], uint256[], uint256[]);\n\n    function getRewardInfo(bytes32 surveyName) public pure returns (address[], uint[], uint256[], bool[], bool[]);\n\n    function isPayable(bytes32 surveyName, address participant, uint date) public pure returns (bool withdraw);\n\n    function getParticipantsPendingPayment(bytes32 surveyName, uint date) public pure returns (address[], bool[]);\n}\n\ncontract AHTTokenInterface {\n    function balanceOf(address _owner) public pure returns (uint256);\n\n    function allowance(address _owner, address _spender) public pure returns (uint256);\n\n    function transferFrom(address _from, address _to, uint256 _value) public pure returns (bool success);\n\n    function transfer(address _to, uint256 _value) public pure returns (bool success);\n}\n\ncontract Survey is ACL {\n    SurveyDBInterface private surveyDB;\n    AHTTokenInterface private ahtToken;\n\n    event SurveyPost(\n        bytes32 name,\n        bytes32[] options,\n        uint endDate,\n        uint256 rewardPool\n    );\n\n    event SurveyOptionPost(\n        bytes32 surveyName,\n        bytes32 surveyOption\n    );\n\n    event SurveyStakingHistoryPost(\n        bytes32 surveyName,\n        address sender,\n        uint payoutType, \n        uint date\n    );\n\n    event SurveyUpdateEndDatePost(\n        bytes32 surveyName,\n        uint endDate\n    );\n\n    event SurveyUpdateRewardPool(\n        bytes32 surveyName,\n        uint256 rewardPool\n    );\n\n    event SurveyAnswerPost(\n        bytes32 surveyName,\n        bytes32 participantOption,\n        uint256 ahtVote,\n        bool typeVote,\n        uint typeReward,\n        address participantAddress\n    );\n    \n    event StakingPost(\n        uint256 amountStaked,\n        address sender\n    );\n\n    event StakingStopPost(\n        bytes32 surveyName,\n        address sender,\n        uint dateStop\n    );\n\n    event SendReward(\n        bytes32 surveyName,\n        address participant,\n        uint256 reward,\n        uint datePayout,\n        address payer\n    );\n\n    event ReturnAmountStaked(\n        address participant,\n        address payer\n    );\n\n    event TransferAHTVote(\n        address participantAddress,\n        uint256 ahtVote\n    );\n\n    constructor(address _surveyDB, address _ahtToken) public {\n        admins[msg.sender] = true;\n        levels[msg.sender] = 0;\n\n        surveyDB = SurveyDBInterface(_surveyDB);\n        ahtToken = AHTTokenInterface(_ahtToken);\n    }\n\n    function setSurveyDBContract(address _surveyDB) external onlyAdmin(0) {\n        surveyDB = SurveyDBInterface(_surveyDB);\n    }\n\n    function setAHTToken(address _ahtToken) external onlyAdmin(0) {\n        ahtToken = AHTTokenInterface(_ahtToken);\n    }\n\n    /**\n    * @notice Function to return all the surveys\n    */\n    function getAllSurveys () external view returns (bytes32[] names) {\n        return surveyDB.getAllSurveys();\n    }\n\n    /**\n    * @notice Function to create new survey\n    * @param name Survey name\n    * @param options Options survey\n    * @param endDate Survey end date\n    * @param rewardPool Survey reward pool\n    */\n    function addSurvey(bytes32 name, bytes32[] options, uint endDate, uint256 rewardPool)\n        external onlyAdmin(1) {\n        surveyDB.addSurvey(name, options, endDate, rewardPool);\n\n        emit SurveyPost(name, options, endDate, rewardPool);\n    }\n    \n    /**\n    * @notice Function to add new option to an existing survey\n    * @param surveyName Survey name\n    * @param surveyOption New survey option\n    */\n    function addSurveyOption(bytes32 surveyName, bytes32 surveyOption)\n        external onlyAdmin(1) {\n        surveyDB.addSurveyOption(surveyName, surveyOption);\n\n        emit SurveyOptionPost(surveyName, surveyOption);   \n    }\n\n    /**\n    * @notice Function to add a staking history row\n    * @param surveyName Survey name\n    * @param sender Sender address\n    * @param payoutType Payout type\n    * @param date Payout date\n    */\n    function addStakingHistory(bytes32 surveyName, address sender, uint payoutType, uint date) public {\n        surveyDB.addStakingHistory(surveyName, sender, payoutType, date);\n\n        emit SurveyStakingHistoryPost(surveyName, sender, payoutType, date);\n    }\n\n    /**\n    * @notice Function to update the survey end date\n    * @param surveyName Survey name\n    * @param endDate Survey end date\n    */\n    function updateSurveyEndDate(bytes32 surveyName, uint endDate) \n        external onlyAdmin(1) {\n        surveyDB.updateSurveyEndDate(surveyName, endDate);\n\n        emit SurveyUpdateEndDatePost(surveyName, endDate); \n    }\n\n    /**\n    * @notice Function to update the survey reward pool\n    * @param surveyName Survey name\n    * @param rewardPool Survey reward pool\n    */\n    function updateSurveyRewardPool(bytes32 surveyName, uint256 rewardPool) \n        external onlyAdmin(1) {\n        surveyDB.updateSurveyRewardPool(surveyName, rewardPool);\n\n        emit SurveyUpdateRewardPool(surveyName, rewardPool);\n    }\n\n    /**\n    * @notice Get user balance\n    * @return balance User balance\n    */\n    function getBalance() external view\n        returns (uint256 balance) {\n        return ahtToken.balanceOf(msg.sender);\n    }\n\n    /**\n    * @notice Save survey answer and transfer aht votes\n    * @param surveyName Survey name\n    * @param participantOption Survey option\n    * @param typeVote Type of vote, true 'FOR' and false 'AGAINST'\n    * @param typeReward Type reward for the participant\n    * @param dateVoted Date voted\n    */\n    function saveAnswer(bytes32 surveyName, \n                        bytes32 participantOption, \n                        bool typeVote,\n                        uint typeReward,\n                        uint dateVoted) public {\n        require(ahtToken.balanceOf(msg.sender) > 1.0, \"The participant has not enought AHT\");\n        \n        uint256 amountStaked = surveyDB.getAmountStaked(msg.sender);\n        \n        require(amountStaked >= 0, \"Insufficient AHT. You need to stake.\");\n\n        surveyDB.saveAnswer(surveyName, participantOption, amountStaked, typeVote, typeReward, msg.sender, dateVoted);\n\n        emit SurveyAnswerPost(surveyName, participantOption, amountStaked, typeVote, typeReward, msg.sender);\n    }\n\n    /**\n    * @notice Send stake\n    * @param surveyName Survey name\n    * @param amountStaked Amount staked\n    * @param stakeStartDate Stake start date\n    */\n    function sendStake(bytes32 surveyName, uint256 amountStaked, uint stakeStartDate) public {\n        require(ahtToken.balanceOf(msg.sender) > 1.0, \"The participant has not enought AHT\");\n        require(ahtToken.balanceOf(msg.sender) > amountStaked, \"The participant has not enought AHT to spend\");\n\n        uint256 allowance = ahtToken.allowance(msg.sender, address(this));\n\n        require(allowance >= amountStaked, \"Check the token allowance\");\n\n        surveyDB.sendStake(surveyName, amountStaked, msg.sender, stakeStartDate);\n\n        ahtToken.transferFrom(msg.sender, address(this), amountStaked);\n\n        emit StakingPost(amountStaked, msg.sender);\n    }\n\n    /**\n    * @notice Stop stake\n    * @param surveyName Survey name\n    * @param dateStop Date stop stake\n    */\n    function stopStake (bytes32 surveyName, uint dateStop) external {\n\n        bool pay = surveyDB.isPayable(surveyName, msg.sender, dateStop);\n\n        if (pay) {\n            uint256 amountStaked = surveyDB.getAmountStaked(msg.sender);\n\n            ahtToken.transfer(msg.sender, amountStaked);\n\n            surveyDB.returnAmountStake(msg.sender);\n\n            emit ReturnAmountStaked(msg.sender, address(this));\n        }\n\n        surveyDB.stopStake(surveyName, msg.sender, dateStop);\n\n        emit StakingStopPost(surveyName, msg.sender, dateStop);\n    }\n\n    /**\n    * @notice Send user reward\n    * @param surveyName Survey name\n    * @param participant Address participant\n    * @param reward Reward amount\n    * @param datePayout Date payout\n    */\n    function sendReward(bytes32 surveyName, address participant, uint256 reward, uint datePayout) \n        external onlyAdmin(1) {\n        surveyDB.sendReward(surveyName, participant, reward, datePayout);\n\n        emit SendReward(surveyName, participant, reward, datePayout, msg.sender);\n    }\n\n    /**\n    * @notice Return the amount staked to some user that stopped the staking\n    * @param sender Address sender\n    */\n    function returnAmountStaked(address sender) external onlyAdmin(1) {\n\n        uint256 amountStaked = surveyDB.getAmountStaked(sender);\n\n        ahtToken.transfer(msg.sender, amountStaked);\n\n        surveyDB.returnAmountStake(sender);\n\n        emit ReturnAmountStaked(sender, msg.sender);\n    }\n\n    /**\n    * @notice Get survey data\n    * @param surveyName Survey name\n    * @return options Survey options\n    * @return open Survey status\n    * @return exists The survey exists\n    * @return address Owner addres\n    */\n    function getSurvey (bytes32 surveyName) external view \n        returns (bytes32[] options, bool exists, uint256 rewardPool, uint endDate, address owner) {\n        return surveyDB.getSurvey(surveyName);\n    }\n\n    /**\n    * @notice Get total amount staked\n    * @return amountStaked Total amount staked\n    */\n    function getTotalAmountStacked () external view returns (uint256 amountStaked) {\n        return surveyDB.getTotalAmountStacked();\n    }\n\n    /**\n    * @notice Get survey reward pool\n    * @param surveyName Survey name\n    * @return rewardPool Survey reward pool\n    */\n    function getSurveyRewardPool (bytes32 surveyName) external view returns (uint256 rewardPool) {\n        return surveyDB.getSurveyRewardPool(surveyName);\n    }\n\n    /**\n    * @notice Get survey staking history\n    * @param surveyName Survey name\n    * @return sender Senders address\n    * @return payoutType Payout type by each sender in the same order than the senders\n    * @return time Date payout by each sender in the same order than the senders\n    */\n    function getSurveyStakingHistory(bytes32 surveyName) external view \n        returns (address[] sender, uint[] payoutType, uint[] time) {\n        return surveyDB.getSurveyStakingHistory(surveyName);\n    }\n\n    /**\n    * @notice Get amount staked by user\n    * @return amountStaked Amount staked\n    */\n    function getAmountStaked () external view returns (uint256 amountStaked) {\n        return surveyDB.getAmountStaked(msg.sender);\n    }\n\n    /**\n    * @notice Get staking info\n    * @param surveyName Survey name\n    * @return stakingActive Staking active status\n    * @return stakingActiveDate Stake start date\n    * @return amountStaked Amount staked\n    * @return rewards Rewards\n    */\n    function getStakingInfo (bytes32 surveyName) external view \n        returns (bool stakingActive, uint stakingActiveDate, uint256 amountStaked, uint256 rewards) {\n        return surveyDB.getStakingInfo(surveyName, msg.sender);\n    }\n\n    /**\n    * @notice Get vote info from a specific survey\n    * @return voted Flag to see if the participant voted\n    * @return dateVoted Date voted\n    */\n    function getVoteInfo(bytes32 surveyName) external view returns (bool voted, uint dateVoted) {\n        return surveyDB.getVoteInfo(surveyName, msg.sender);\n    }\n\n    /**\n    * @notice Get voted options by specific survey and user\n    * @param surveyName Survey name\n    * @return votedOptions Voted options\n    */\n    function getVotedOptions (bytes32 surveyName) external view returns (bytes32[] votedOptions) {\n        return surveyDB.getVotedOptions(surveyName, msg.sender);\n    }\n\n    /**\n    * @notice Get survey results\n    * @param surveyName Survey name\n    * @return options_ Survey options\n    * @return AHTVotesFor_ AHT Votes FOR by each option in the same order than the survey options\n    * @return AHTVotesAgainst_ AHT Votes AGAINST by each option in the same order tahn the survey options\n    */\n    function getSurveyResult(bytes32 surveyName) external view returns (bytes32[], uint256[], uint256[]) {\n        return surveyDB.getSurveyResult(surveyName);\n    }\n\n    /**\n    * @notice Get reward info by survey\n    * @param surveyName Survey name\n    * @return participants Survey participants\n    * @return stakingTime Staking time by each participant in the same order than the participants\n    * @return reward Reward by each participant in the same order than the participants\n    * @return rewarded Flag to see if the participant was rewarded in the same order than the participants\n    * @return stakeStatus Flag to see if the participant has staking active in the same order than the participants\n    */\n    function getRewardInfo(bytes32 surveyName) external onlyAdmin(1) \n        view returns (address[], uint[], uint256[], bool[], bool[]) {\n        return surveyDB.getRewardInfo(surveyName);\n    }\n\n    /**\n    * @notice Get participants pending of withdraw the amount staked and if they might do it\n    * @param surveyName Survey name\n    * @param date Date\n    * @return participants Participants pending of withdraw\n    * @return pay Flag to see if the participant migh withdraw the amount staked\n    */\n    function getParticipantsPendingPayment(bytes32 surveyName, uint date) external onlyAdmin(1) \n        view returns (address[], bool[]) {\n        return surveyDB.getParticipantsPendingPayment(surveyName, date);\n    }\n}",
    "sourcePath": "/volumes/Files/Proyectos/OrcaDeFi/ethereum-truffle/contracts/Survey.sol",
    "compiler": {
        "name": "solc",
        "version": "0.4.25+commit.59dbf8f1.Emscripten.clang"
    },
    "schemaVersion": "3.3.3",
    "updatedAt": "2021-01-22T20:35:34.238Z",
    "devdoc": {
        "methods": {
            "addAdmin(address,uint256)": {
                "params": {
                    "_newAdmin": "the level of the new admin"
                },
                "return": "true if `msg.sender` is the admin"
            },
            "addStakingHistory(bytes32,address,uint256,uint256)": {
                "params": {
                    "date": "Payout date",
                    "payoutType": "Payout type",
                    "sender": "Sender address",
                    "surveyName": "Survey name"
                }
            },
            "addSurvey(bytes32,bytes32[],uint256,uint256)": {
                "params": {
                    "endDate": "Survey end date",
                    "name": "Survey name",
                    "options": "Options survey",
                    "rewardPool": "Survey reward pool"
                }
            },
            "addSurveyOption(bytes32,bytes32)": {
                "params": {
                    "surveyName": "Survey name",
                    "surveyOption": "New survey option"
                }
            },
            "getAmountStaked()": {
                "return": "amountStaked Amount staked"
            },
            "getBalance()": {
                "return": "balance User balance"
            },
            "getParticipantsPendingPayment(bytes32,uint256)": {
                "params": {
                    "date": "Date",
                    "surveyName": "Survey name"
                },
                "return": "participants Participants pending of withdrawpay Flag to see if the participant migh withdraw the amount staked"
            },
            "getRewardInfo(bytes32)": {
                "params": {
                    "surveyName": "Survey name"
                },
                "return": "participants Survey participantsstakingTime Staking time by each participant in the same order than the participantsreward Reward by each participant in the same order than the participantsrewarded Flag to see if the participant was rewarded in the same order than the participantsstakeStatus Flag to see if the participant has staking active in the same order than the participants"
            },
            "getStakingInfo(bytes32)": {
                "params": {
                    "surveyName": "Survey name"
                },
                "return": "stakingActive Staking active statusstakingActiveDate Stake start dateamountStaked Amount stakedrewards Rewards"
            },
            "getSurvey(bytes32)": {
                "params": {
                    "surveyName": "Survey name"
                },
                "return": "options Survey optionsopen Survey statusexists The survey existsaddress Owner addres"
            },
            "getSurveyResult(bytes32)": {
                "params": {
                    "surveyName": "Survey name"
                },
                "return": "options_ Survey optionsAHTVotesFor_ AHT Votes FOR by each option in the same order than the survey optionsAHTVotesAgainst_ AHT Votes AGAINST by each option in the same order tahn the survey options"
            },
            "getSurveyRewardPool(bytes32)": {
                "params": {
                    "surveyName": "Survey name"
                },
                "return": "rewardPool Survey reward pool"
            },
            "getSurveyStakingHistory(bytes32)": {
                "params": {
                    "surveyName": "Survey name"
                },
                "return": "sender Senders addresspayoutType Payout type by each sender in the same order than the senderstime Date payout by each sender in the same order than the senders"
            },
            "getTotalAmountStacked()": {
                "return": "amountStaked Total amount staked"
            },
            "getVoteInfo(bytes32)": {
                "return": "voted Flag to see if the participant voteddateVoted Date voted"
            },
            "getVotedOptions(bytes32)": {
                "params": {
                    "surveyName": "Survey name"
                },
                "return": "votedOptions Voted options"
            },
            "isAdmin(address,uint256)": {
                "params": {
                    "_isAdmin": "the address  admin",
                    "level": "the level of the admin"
                },
                "return": "true if `msg.sender` is the admin"
            },
            "returnAmountStaked(address)": {
                "params": {
                    "sender": "Address sender"
                }
            },
            "saveAnswer(bytes32,bytes32,bool,uint256,uint256)": {
                "params": {
                    "dateVoted": "Date voted",
                    "participantOption": "Survey option",
                    "surveyName": "Survey name",
                    "typeReward": "Type reward for the participant",
                    "typeVote": "Type of vote, true 'FOR' and false 'AGAINST'"
                }
            },
            "sendReward(bytes32,address,uint256,uint256)": {
                "params": {
                    "datePayout": "Date payout",
                    "participant": "Address participant",
                    "reward": "Reward amount",
                    "surveyName": "Survey name"
                }
            },
            "sendStake(bytes32,uint256,uint256)": {
                "params": {
                    "amountStaked": "Amount staked",
                    "stakeStartDate": "Stake start date",
                    "surveyName": "Survey name"
                }
            },
            "stopStake(bytes32,uint256)": {
                "params": {
                    "dateStop": "Date stop stake",
                    "surveyName": "Survey name"
                }
            },
            "updateSurveyEndDate(bytes32,uint256)": {
                "params": {
                    "endDate": "Survey end date",
                    "surveyName": "Survey name"
                }
            },
            "updateSurveyRewardPool(bytes32,uint256)": {
                "params": {
                    "rewardPool": "Survey reward pool",
                    "surveyName": "Survey name"
                }
            }
        }
    },
    "userdoc": {
        "methods": {
            "addStakingHistory(bytes32,address,uint256,uint256)": {
                "notice": "Function to add a staking history row"
            },
            "addSurvey(bytes32,bytes32[],uint256,uint256)": {
                "notice": "Function to create new survey"
            },
            "addSurveyOption(bytes32,bytes32)": {
                "notice": "Function to add new option to an existing survey"
            },
            "destroy()": {
                "notice": "Removes the contract and sends any AHT to the contract creator"
            },
            "getAllSurveys()": {
                "notice": "Function to return all the surveys"
            },
            "getAmountStaked()": {
                "notice": "Get amount staked by user"
            },
            "getBalance()": {
                "notice": "Get user balance"
            },
            "getParticipantsPendingPayment(bytes32,uint256)": {
                "notice": "Get participants pending of withdraw the amount staked and if they might do it"
            },
            "getRewardInfo(bytes32)": {
                "notice": "Get reward info by survey"
            },
            "getStakingInfo(bytes32)": {
                "notice": "Get staking info"
            },
            "getSurvey(bytes32)": {
                "notice": "Get survey data"
            },
            "getSurveyResult(bytes32)": {
                "notice": "Get survey results"
            },
            "getSurveyRewardPool(bytes32)": {
                "notice": "Get survey reward pool"
            },
            "getSurveyStakingHistory(bytes32)": {
                "notice": "Get survey staking history"
            },
            "getTotalAmountStacked()": {
                "notice": "Get total amount staked"
            },
            "getVoteInfo(bytes32)": {
                "notice": "Get vote info from a specific survey"
            },
            "getVotedOptions(bytes32)": {
                "notice": "Get voted options by specific survey and user"
            },
            "returnAmountStaked(address)": {
                "notice": "Return the amount staked to some user that stopped the staking"
            },
            "saveAnswer(bytes32,bytes32,bool,uint256,uint256)": {
                "notice": "Save survey answer and transfer aht votes"
            },
            "sendReward(bytes32,address,uint256,uint256)": {
                "notice": "Send user reward"
            },
            "sendStake(bytes32,uint256,uint256)": {
                "notice": "Send stake"
            },
            "stopStake(bytes32,uint256)": {
                "notice": "Stop stake"
            },
            "updateSurveyEndDate(bytes32,uint256)": {
                "notice": "Function to update the survey end date"
            },
            "updateSurveyRewardPool(bytes32,uint256)": {
                "notice": "Function to update the survey reward pool"
            }
        }
    }
}